:030000000219439F
:0C194300787FE4F6D8FD75812002198A37
:0F21D1004C45445F4F4E004C45445F4F4646001F
:081B9B004100C6004100C70033
:102136001221EF12000E7DD07C07E4FF121812E484
:10214600FF1222277D037F55120C28121AC680FB28
:03000B000220458B
:10204500C0E0C083C082C0D0900043E0C394027456
:102055008094804010E004F0E0D3940C7480948068
:0E20650040037401F0D0D0D082D083D0E0329E
:07222F00AD077F010221FD54
:101FE3009000437402F0900042E02402F582E4344E
:101FF30000F583E599F0900042E004F0900000E0E2
:1020030004F0900042E0C39440748094804002E462
:02201300F022B9
:101F7300900080EFF07C217DD17B017A0079C6123D
:101F830020A0900080E0FF7C217DD87B017A00793E
:101F9300C71220A09000C6E064067002C2CD900074
:091FA300C7E064077002D2CD22F0
:032258007F0122E1
:04225400E4FEFF2283
:0100220022BB
:1021C100EF640F4E7009ED4C7003C2CD22D2CD22C7
:01225E00225D
:03225B007F0122DE
:01225F00225C
:05224A00740102074DC4
:07223600E475F00102081D30
:05224F00740102074DBF
:01226000225B
:07223D00E475F00102081D29
:051BA3004200970960FB
:10217600EF4E601A900097E0FCA3E0FDED1D7001A4
:0E2186001C144C70F7EF1F70011E144E70E613
:012194002228
:0A220B00EF1FAC0670011E4C70F6C8
:0122150022A6
:1020CA00900097E0FCA3E0FD1209B5E47B83FAF9DE
:1020DA00F812083C900099120978900099E0C3130D
:0620EA00FEA3E013FF223B
:1020F000E50965996008859909E4F50880020508F5
:10210000AF08C3EF94E97480948040060075C760FF
:03211000000022AA
:0E21EF0043BA80E4F509F508122073D2AF223E
:080003000102040810204080F6
:0F21E000EF54F0F50AEF540F90000393F50B2224
:1018B600EF540FD3940774809480400302194212A8
:1018C60021E0E50A24F0602424F0602A24F0603048
:1018D60024F0603624F0603C24F0604224F0604836
:1018E60024707058ED90FE1060498042ED90FE1114
:1018F6006002803A803DED90FE12600280308033B7
:10190600ED90FE13600280268029ED90FE146002A1
:10191600801C801FED90FE15600280128015ED90F0
:10192600FE1660028008800BED90FE176005E0450C
:0D1936000BF022E0FFE50BF4FEEF5EF02267
:100C2800EF540FD39407748094804003020E31125E
:100C380021E0ED706EAF0AFEEF7007E50BF45293FA
:100C48005294EF64104E7007E50BF452915292E5FE
:100C58000A64207007E50BF452955296AF0A7E009D
:100C6800EF64307007E50BF452B152B2EF64404EB6
:100C78007007E50BF452B352B4E50A64507007E507
:100C88000BF452C952CAAF0A7E00EF64607007E5E0
:100C98000BF452CB52CCEF64704E7007E50BF45254
:100CA800E152E2ED64016003020D31AF0AFEEF701C
:100CB80009E50B4293E50BF45294EF64104E70096A
:100CC800E50B4291E50BF45292E50A64207009E5C0
:100CD8000B4295E50BF45296AF0A7E00EF64307034
:100CE80009E50B42B1E50BF452B2EF64404E7009CE
:100CF800E50B42B3E50BF452B4E50A64507009E51C
:100D08000B42C9E50BF452CAAF0A7E00EF6460706B
:100D180009E50B42CBE50BF452CCEF64704E700939
:100D2800E50B42E1E50BF452E2EDFF7E0064027050
:100D380071E50AFB7A007008E50B4293E50B4294D3
:100D4800EB64104A7008E50B4291E50B4292EB64A4
:100D5800204A7008E50B4295E50B4296EB64304A51
:100D68007008E50B42B1E50B42B2EB64404A7008EB
:100D7800E50B42B3E50B42B4EB64504A7008E50B4F
:100D880042C9E50B42CAEB64604A7008E50B42CBE6
:100D9800E50B42CCEB64704A7008E50B42E1E50BC9
:100DA80042E2EF64034E6003020E31AF0AFEEF70B9
:100DB80009E50BF45293E50B4294EF64104E700969
:100DC800E50BF45291E50B4292E50A64207009E5BF
:100DD8000BF45295E50B4296AF0A7E00EF64307033
:100DE80009E50BF452B1E50B42B2EF64404E7009CD
:100DF800E50BF452B3E50B42B4E50A64507009E51B
:100E08000BF452C9E50B42CAAF0A7E00EF6460706A
:100E180009E50BF452CBE50B42CCEF64704E700938
:0A0E2800E50BF452E1E50B42E22273
:101EEA00EFFB7A0070028D80EB64014A70028D90DC
:101EFA00EF640270028DA0EFFB7A00640370028D1A
:101F0A00B0EB64044A70028DC0EF640570028DC89C
:101F1A00EFFB7A00640670028DE8EB64074A7004EE
:051F2A00AF058FF82255
:101D1A00EFFD7C007003AF8022ED64014C7003AFCD
:101D2A009022EFFD7C0064027003AFA022ED6403F1
:101D3A004C7003AFB022EFFD7C0064047003AFC0A7
:101D4A0022ED64054C7003AFC822EFFD7C006406E7
:101D5A007003AFE822ED64074C7003AFF8227FFFEF
:011D6A002256
:10176E00EF540FD394077480948040030218111223
:10177E0021E0E50A24F0602A24F0603424F0603E73
:10178E0024F0604824F0605224F0605C24F060661F
:10179E002470706FED6005E50B428022E50BF4526C
:1017AE008022ED6005E50B429022E50BF45290226B
:1017BE00ED6005E50B42A022E50BF452A022ED6090
:1017CE0005E50B42B022E50BF452B022ED6005E5C3
:1017DE000B42C022E50BF452C022ED6005E50B4230
:1017EE00C822E50BF452C822ED6005E50B42E82253
:1017FE00E50BF452E822ED6005E50B42F822E50B0D
:04180E00F452F82276
:101C6000EF540FD394077480948040037F012212B5
:101C700021E0E50AFD7C007002AE80ED64104C703E
:101C800002AE90ED64204C7002AEA0ED64304C705A
:101C900002AEB0ED64404C7002AEC0ED64504C70CA
:101CA00002AEC8ED64604C7002AEE8ED64704C703A
:0D1CB00002AEF8E50B5E60037F01227F00AD
:011CBD002204
:101BFF00EF540FD394077480948050541221E0AFA8
:101C0F000A7E00EF7004E50B6280EF64104E7004E3
:101C1F00E50B6290EF64204E7004E50B62A0EF6459
:101C2F00304E7004E50B62B0EF64404E7004E50B6C
:101C3F0062C0EF64504E7004E50B62C8EF64604EF3
:101C4F007004E50B62E8EF64704E7004E50B62F808
:011C5F002262
:101E5500EFFB7A007003ED6280EB64014A7003EDDD
:101E65006290EF64027003ED62A0EFFB7A006403F9
:101E75007003ED62B0EB64044A7003ED62C0EF6479
:101E8500057003ED62C8EFFB7A0064067003ED622E
:0B1E9500E8EB64074A7003ED62F822DE
:1019CF00EF700CEB6005ED42808004EDF45280EF78
:1019DF006401700CEB6005ED42908004EDF45290C1
:1019EF00EF6402700CEB6005ED42A08004EDF45241
:1019FF00A0EF6403700CEB6005ED42B08004EDF4D2
:101A0F0052B0EF6404700CEB6005ED42C08004ED42
:101A1F00F452C0EF6405700CEB6005ED42C8800412
:101A2F00EDF452C8EF6406700CEB6005ED42E880F0
:101A3F0004EDF452E8EF6407700BEB6004ED42F82D
:061A4F0022EDF452F82222
:101E09007EFFEFFB7A007002AE80EB64014A70023C
:101E1900AE90EB64024A7002AEA0EB64034A700212
:101E2900AEB0EB64044A7002AEC0EB64054A7002BE
:101E3900AEC8EB64064A7002AEE8EB64074A70026A
:0B1E4900AEF8EE5D60037F01227F0019
:011E5400226B
:08221F00303136371617434435
:10207300759850538EDEE4FD7F01121DBB900081E5
:102083001209840001C2007F01122015438E4053C0
:0D209300890FC2ABC28FD28EC200D2AC2228
:101DBB00900080EDF0EF147044900080E0FF54C071
:101DCB00FEE5A2543F4EF5A2EFC41313540325E0D6
:101DDB00241FF582E43422F583E493FFE4FD120C17
:101DEB0028900080E0C41313540325E02420F582CF
:0E1DFB00E43422F583E493FF7D03120C2822CA
:05201500900080EFF0D7
:10201A00A3E0F8A3E0F9A3E0FAA3E0FB7F807E8DBA
:10202A007D5B7C001208C7C3E49FFFE49EFE90001C
:0A203A0080E01470058F8BEEF58D29
:012044002279
:0E21FD00EF147009AF058F99D2002000FD226B
:10219500EF147016EB6006D29BD29B8004C29BC2E3
:0B21A5009BAF058F99D2002000FD22A7
:101FAC009000B4EBF0A3EAF0A3E9F0AE079000B414
:101FBC00E0FBA3E0FAA3E0F91207126019AF069058
:101FCC0000B4A3E475F0011207DCA9F0FA120712B1
:071FDC00FD1221FD80D72258
:03002300021EA01A
:101EA000C0E0C0F0C083C082C0D075D000C000C008
:101EB00001C002C003C004C005C006C007309808B6
:101EC000C298121FE31220F0309904C299C200D0C8
:101ED00007D006D005D004D003D002D001D000D066
:0A1EE000D0D082D083D0F0D0E032E1
:08222700EF7004C28DD28C227D
:06224400EF7002C28C22C3
:102113009000C8EFF0ED600AE07017438F017D0374
:10212300800B9000C8E0700A538FFEE4FD7F3512E8
:032133000C282253
:10000E00E58E547F4480F58E5389F0758AF6758C93
:04001E00FFD2A92242
:0B181200900080EFF0A3ECF0A3EDF0DD
:10181D004C70030218B57FAA7E0A900085747FF084
:10182D00A374FFF0900081E0FCA3E0FDD39FEC9E3C
:10183D005013A3E4F0A304F0E4120658E4FBFA7984
:10184D00C078418027900085E0FEA3E0FF900081E5
:10185D00E0FCA3E0FDD39FEC9E5024A3E4F0A37421
:10186D000CF0E4120658E4FBFAF9784012054D121B
:10187D000691C3E49FFFE49E900087F0A3EFF090E4
:10188D000080E07023900083E07004A3E064017099
:10189D0005438E808003538E7F900087E0FEA3E08A
:0818AD00F58AEEF58C5389FB6E
:0118B5002210
:09221600EF70058D8AECF58C22B5
:1021B000E4FDFCEF7006AF8CEFAD8AFCAE04AF051A
:0121C00022FC
:101BA80041000100410042004100000041004300A3
:101AC600900043E064017066900000E0FF7E00D362
:101AD6009400748094804047EF94407480948050C2
:101AE6003EE4900043F0900000E0602AA3E0240268
:101AF600F582E43400F583E0FF121F73900001E0E5
:101B060004F0E0C39440748094804002E4F09000B6
:101B160000E014F080D0900042E0900001F02290A6
:0F1B26000000E0C39440748094804002E4F022F9
:1020A0001207122DF582E43CF583E493B507028014
:1020B00013E412074D1207122DF582E43CF583E478
:0A20C00093B50705740112072B22E7
:101BB80041006900420065000042006700004100E2
:0E1BC8006A0041006C0041006D0041006B009E
:102156009000697401F0E4900065F0A3F0A3F0A389
:10216600F090006AF090006CF0A3F090006BF02203
:05152800E0FEA3E0FF5E
:04152D00AB07AA0658
:101531007C277D1012077190009DEFF07C277D10B4
:10154100AF03AE021207717E037FE8CFCDCFCECCC1
:10155100CE120771A3EFF07C037DE8AF03AE021258
:1015610007717E007F64CFCDCFCECCCE120771A3A1
:10157100EFF07C007D64AF03AE021207717E007F45
:101581000ACFCDCFCECCCE120771A3EFF0AE02AF12
:10159100037C007D0A120771A3EDF090009DE060CD
:1015A100062430FF12222F90009EE0FF90009DE064
:1015B1004F6007EF2430FF12222F90009EE0FF9032
:1015C100009DE04FFF90009FE0FE4F6007EE24304A
:1015D100FF12222F90009EE0FF90009DE04FFF90B0
:1015E100009FE04FFFA3E0FE4F6007EE2430FF12A3
:0C15F100222F9000A1E02430FF02222FE6
:101CBE009000B8EEF0A3EFF0E49000B7F09000B70C
:101CCE00E0C39404748094805041A3E054F0FEA3CA
:101CDE00C394A0500AE42430E43EC4540F800C9008
:101CEE0000B8E054F0A3C4540F2437FF12222F90F3
:101CFE0000B9E0C4F8540FC868F09000B8E0C454BE
:0B1D0E00F048F09000B7E004F080B255
:011D190022A7
:050026009000ACEFF0BA
:10002B00900069E014B408004003020354900046AA
:10003B0075F003A4C58325F0C5837302005E02002F
:10004B00F00201290201D702021A0202860200CD38
:10005B000203479000ACE0FFC394304034EFD394DD
:10006B0039502E900065E0FEA3E0FF7C007D0A1264
:10007B00075F900065EEF0A3EFF09000ACE024D0AA
:10008B00FFE434FFFE900066E02FF0900065020362
:10009B00329000ACE0FFB440099000697402F002AA
:1000AB000354EF645D606BEFB429028065EF646904
:1000BB006004EFB449099000697407F0020354021D
:1000CB0003409000ACE0FF64646004EFB4440A901A
:1000DB00006DE0440AF00203549000ACE0B45D0202
:1000EB0080300203409000ACE0FFC39430401CEF23
:1000FB00D39439501690006AE075F00AA4F0900082
:10010B00ACE024D0FF90006A0201FA9000ACE0B49E
:10011B005D099000697403F00203540203409000E0
:10012B00ACE0FDB42B0890006DE04401805EEDB4B3
:10013B002D0890006DE0440280529000ACE0FDB4BD
:10014B002A0890006DE044038042EDB42F08900024
:10015B006DE0440480369000ACE0FDB426089000BE
:10016B006DE044058026EDB47C0890006DE04406FC
:10017B00801A9000ACE0FDB45E0890006DE044077F
:10018B00800AEDB42E1090006DE04408F0900069E9
:10019B007404F00203549000ACE0FDB43D089000F1
:1001AB006DE04409805CEDB4780A90006DE044404A
:1001BB00F00203549000ACE0B43F0E90006DE0F001
:1001CB009000697408F00203540203409000ACE005
:1001DB00FFC39430401FEFD39439501990006CE05B
:1001EB0075F00AA4F09000ACE024D0FF90006CE016
:1001FB002FF00203549000ACE0B43D1090006CE083
:10020B00540FF09000697405F00203540203409000
:10021B0000ACE0FFC394304034EFD39439502E90B0
:10022B000067E0FEA3E0FF7C007D0A12075F9000F1
:10023B0067EEF0A3EFF09000ACE024D0FFE434FFC6
:10024B00FE900068E02FF09000670203329000AC44
:10025B00E0FFB43B0302034EEF64786004EFB45845
:10026B0017E4900067F0A3F090006DE04440F0902D
:10027B0000697406F00203540203409000ACE0FFE7
:10028B00C394304030EFD39439502A900068E0C4C7
:10029B00F8540FC868F0900067E0C454F048F09031
:1002AB0000ACE024D0FFE434FFFE900068E02FF0B8
:1002BB0090006780729000ACE0FFC394614030EF18
:1002CB00D39466502A900068E0C4F8540FC868F0C5
:1002DB00900067E0C454F048F09000ACE024A9FF14
:1002EB00E434FFFE900068E02FF0900067803890B8
:1002FB0000ACE0FFC394414033EFD39446502D90B4
:10030B000068E0C4F8540FC868F0900067E0C4546C
:10031B00F048F09000ACE024C9FFE434FFFE9000FD
:10032B0068E02FF0900067E03EF0801D9000ACE09D
:10033B00B43B02800EE4900069F0800D9000ACE0BD
:10034B00B43B069000697409F0900069E0640960A1
:10035B000302053290006DE0540F9000AFF0640A79
:10036B00701A7F6912222F7F6412222F7F3D122277
:10037B002F1222587E0012152D02050B90006AE0F9
:10038B00600D12225890006AE06F600302052D90F9
:10039B000065E0FEA3E0FF1222549000ADEEF0A347
:1003AB00EFF090006DE020E70302051C9000AFE03A
:1003BB0014B4090040030204BF9003D275F003A4E8
:1003CB00C58325F0C583730203ED02040402041CEC
:1003DB0002043102044A02045402045E0204720253
:1003EB0004B0900067E0FEA3E0FF9000AEE02FF0BA
:1003FB009000ADE03EF00204BF900067E0FEA3E08A
:10040B00FFC39000AEE09FF09000ADE09EF00204C1
:10041B00BF9000ADE0FEA3E0FF900067E0FCA3E01F
:10042B00FD12075F80139000ADE0FEA3E0FF90008C
:10043B0067E0FCA3E0FD1207719000ADEE807190B8
:10044B000067E0FEA3E0FF8050900067E0FEA3E0B2
:10045B00FF8034900067E0FEA3E0FF9000ADE06EFC
:10046B00F0A3E06FF0804D90006CE0FF7E00740114
:10047B00A807088005C333CE33CED8F9FF900067A9
:10048B00E07002A3E0600C9000ADE04EF0A3E04FF3
:10049B00F08021EFF4FFEEF4FE9000ADE05EF0A3F0
:1004AB00E05FF0800F900067E0FFA3E09000ADCF1E
:1004BB00F0A3EFF0900065E0FEA3E0FF9000ADE04D
:1004CB00FCA3E0FD1200227F2812222F9000651260
:1004DB0015287F2912222F7F3D12222F90006DE0CD
:1004EB0030E6177F3012222F7F7812222F9000AD2B
:1004FB00E0FEA3E0FF121CBE80069000AD12152893
:10050B007F3B12222F7F0D12222F7F0A12222F8068
:10051B0011900065E0FEA3E0FFA3E0FCA3E0FD1259
:10052B0021C1E4900069F09000ACE0FDB45B0B12CC
:10053B00215690006DE04480F022EDB42803122187
:01054B005659
:01054C00228C
:101D6B009000A2EEF0A3EFF0A3EDF0A3EAF0A3EB4B
:101D7B00F07F5B12222F9000A21215289000A4E096
:101D8B00600F7F4012222F9000A4E0FF7E001215FF
:101D9B002D7F5D12222F7F3D12222F9000A5121551
:101DAB00287F3B12222F7F0D12222F7F0A02222F18
:101F2F009000BAEEF0A3EFF0A3EDF07F5B12222F3B
:101F3F009000BA1215289000BCE0600F7F4012226B
:101F4F002F9000BCE0FF7E0012152D7F5D12222F17
:101F5F007F3F12222F7F3B12222F7F0D12222F7FC6
:041F6F000A02222F11
:101BD60041004500410064004100490041004400C5
:101BE60042006200004200460000420060000042DF
:081BF600005E00004100480000
:091B3500A3E0FF7B017A0079C1F5
:0B1B3E009000BDEBF0A3EAF0A3E9F07B
:101B49009000BDE0FBA3E0FAA3E0F91207F2FDACB7
:101B5900F0ED6FFDE4FBEBC3940874809480501F93
:101B6900ED30E011ECC313FEED13FFEE64A0FCEFC2
:101B79006401FD8007ECC313FCED13FD0B80D7AFA7
:101B8900059000BDE0FBA3E0FAA3E0F9EC8FF002B9
:021B9900081D25
:081A55009000A7EFF0A3EDF0F3
:101A5D0074FF9000AAF0A3F0900064E0605A122287
:101A6D005B9000A9EFF07B017A0079AA121B3E90E2
:101A7D0000A7E02480FF7B017A0079AA121B3E901B
:101A8D0000A8E0FF7B017A0079AA121B3E9000A905
:101A9D00E0FF12222F9000A7E02480FF12222F904A
:101AAD0000A8E0FF12222F9000AAA3E0FF12222F20
:081ABD009000AAE0FF12222FA5
:011AC50022FE
:100FCF0074FF900075F0A3F012225B900074EFF0A5
:100FDF00900046E0FEA3E0FFC39401EE940050039F
:100FEF0002115CD3EF94D0EE9407400302115C9092
:100FFF000062E0FEA3E0FBAA06900046E0FEA3E03D
:10100F00FFEF2BFFEE3AFEE433FDE433FCE4FBFA93
:10101F007901F8C31209675003021155900064E07B
:10102F007003021168900046E0FCA3E0FDAE047867
:10103F0003CEC313CE13D8F990006FF0ED540760B1
:10104F0003E004F0900074E0FF7B017A00797512E1
:10105F001B3E7B017A0079757F01121B3E90006F5A
:10106F00E0FF7B017A007975121B3E900074E0FF60
:10107F0012222F7F0112222F90006FE0FF12222FDA
:10108F00E4900071F090006FE0FF900071E0C39F5B
:10109F004003021144E490006EF0900046E0FEA37E
:1010AF00E0FFC39408EE940090007040057408F0C0
:1010BF008002EFF0E4900072F0900070E0FF90007B
:1010CF0072E0C39F503D900062E475F0011207DC9F
:1010DF00AFF0FE7B017A00797312224A900073E021
:1010EF00601990006EE0FF900072E0FEF874010846
:1010FF008002C333D8FC4F90006EF0900072E00472
:10110F00F080B690006EE0FF7B017A007975121BBC
:10111F003E90006EE0FF12222F900070E0FFC39010
:10112F000047E09FF0900046E09400F0900071E0DF
:10113F0004F0021094900075A3E0FF12222F90008C
:10114F0075E0FF02222F9000447402800590004446
:09115F007403F0FD7F01121A5522
:011168002264
:100E320074FF90007EF0A3F012225B90007DEFF031
:100E4200900046E0FEA3E0FFC39401EE940050033D
:100E5200020FC2D3EF94D0EE94074003020FC29068
:100E62000062E0FEA3E0FBAA06900046E0FEA3E0DB
:100E7200FFEF2BFFEE3AFEE433FDE433FCE4FBFA32
:100E82007901F8C31209675003020FB8900064E0B9
:100E92007003020FCE900046E0FCA3E0FDAE0478A2
:100EA20003CEC313CE13D8F9900078F0ED54076047
:100EB20003E004F090007DE0FF7B017A00797E126E
:100EC2001B3E7B017A00797E7F02121B3E900078E6
:100ED200E0FF7B017A00797E121B3E90007DE0FFED
:100EE20012222F7F0212222F900078E0FF12222F6F
:100EF200E490007AF0900078E0FF90007AE0C39FDF
:100F02004003020FA7E4900077F0900046E0FEA3B2
:100F1200E0FFC39408EE940090007940057408F055
:100F22008002EFF0E490007BF0900079E0FF900007
:100F32007BE0C39F503D900062E475F0011207DC34
:100F4200AFF0FE7B017A00797C12224F90007CE0A8
:100F52006019900077E0FF90007BE0FEF8740108D2
:100F62008002C333D8FC4F900077F090007BE004FE
:100F7200F080B6900077E0FF7B017A00797E121B49
:100F82003E900077E0FF12222F900079E0FFC3909D
:100F92000047E09FF0900046E09400F090007AE075
:100FA20004F0020EF790007EA3E0FF12222F9000C1
:100FB2007EE0FF02222F9000447402F0FDFF8009C0
:0C0FC2009000447403F0FD7F02121A55E9
:010FCE002200
:1012AF0074FF90008EF0A3F012225B900089EFF094
:1012BF00900046E0FEA3E0FFC39401EE94005003BC
:1012CF000213E1D3EF947DEE940040030213E190FB
:1012DF000062E0FEA3E0FBAA06900046E0FEA3E05A
:1012EF00FFEF2BFFEE3AFEE433FDE433FCE4FBFAB1
:1012FF007901F8D312096750030213D6900064E006
:10130F0070030213EC900089E0FF0B7A00798E12C4
:10131F001B3E7B017A00798E7F03121B3E900046A5
:10132F00A3E025E0FF7B017A00798E121B3E90002F
:10133F0089E0FF12222F7F0312222F900046A3E095
:10134F0025E0FF12222FE490008CF0A3F0900046CE
:10135F00E0FEA3E0FF90008CE0FCA3E0FDC39FEC58
:10136F009E5053900063E02DFF900062E03CFE7BA7
:10137F00017A00798A12223D90008AE0FF7B017A80
:10138F0000798E121B3E90008AA3E0FF7B017A004A
:10139F00798E121B3E90008AE0FF12222F90008A56
:1013AF00A3E0FF12222F90008DE004F0709F9000B9
:1013BF008CE004F0809790008EA3E0FF12222F9014
:1013CF00008EE0FF02222F9000447402F0FD7F0395
:0D13DF0080089000447403F0FDFF121A55C1
:0113EC0022DE
:1013ED0074FF900095F0A3F012225B900090EFF047
:1013FD00900046E0FEA3E0FFC39401EE940050037D
:10140D0002151BD3EF947DEE9400400302151B9043
:10141D000062E0FEA3E0FBAA06900046E0FEA3E01A
:10142D00FFEF2BFFEE3AFEE433FDE433FCE4FBFA71
:10143D007901F8D31209675003021514900064E086
:10144D007003021527900090E0FF0B7A007995123A
:10145D001B3E7B017A0079957F04121B3E9000465E
:10146D00A3E025E0FF7B017A007995121B3E9000E9
:10147D0090E0FF12222F7F0412222F900046A3E04E
:10148D0025E0FF12222FE4900093F0A3F090004688
:10149D00E0FEA3E0FF900093E0FCA3E0FDC39FEC12
:1014AD009E5053900063E02DFF900062E03CFE7B68
:1014BD00017A007991122236900091E0FF7B017A3A
:1014CD00007995121B3E900091A3E0FF7B017A00FD
:1014DD007995121B3E900091E0FF12222F90009102
:1014ED00A3E0FF12222F900094E004F0709F900073
:1014FD0093E004F08097900095A3E0FF12222F90C7
:10150D000095E0FF02222F900044740280059000A8
:0A151D00447403F0FD7F04121A5518
:0115270022A1
:1016BD0074FF9000C1F0A3F012225B9000C0EFF018
:1016CD00900046E0FEA3E0FF4E600AEF7002EEF4DC
:1016DD006003021761900046E0FD900062E0FEA3FA
:1016ED00E0FF12225F900064E060759000C0121B55
:1016FD00367B017A0079C17F05121B3E9000621284
:10170D001B36900062121B35900046121B3690005E
:10171D0046121B359000C0E0FF12222F7F051222CA
:10172D002F900062E0FF12222F900062A3E0FF12C3
:10173D00222F900046E0FF12222F900046A3E0FFDB
:10174D0012222F9000C1A3E0FF12222F9000C1E0C2
:10175D00FF02222F9000447403F0FD7F05121A55ED
:01176D002259
:1015FD0074FF9000C4F0A3F012225B9000C3EFF0D3
:10160D00900062E0FEA3E0FF900046E0FCA3E0FD49
:10161D00122260900064E070030216BC9000C3E0DB
:10162D00FF7B017A0079C4121B3E7B017A0079C4DD
:10163D007F06121B3E900062E0FF7B017A0079C4A9
:10164D00121B3E900062A3E0FF7B017A0079C41269
:10165D001B3E900046E0FF7B017A0079C4121B3ED1
:10166D00900046A3E0FF7B017A0079C4121B3E90E7
:10167D0000C3E0FF12222F7F0612222F900062E09E
:10168D00FF12222F900062A3E0FF12222F9000463E
:10169D00E0FF12222F900046A3E0FF12222F9000B0
:0F16AD00C4A3E0FF12222F9000C4E0FF12222FEF
:0116BC00220B
:1011690074FF9000B2F0A3F012225B9000B1EFF08F
:10117900900046E0FEA3E0FFC39401EE9400500303
:101189000212A2D3EF947BEE940040030212A290C4
:101199000046A3E0FBAA06900062E0FEA3E0FFEF91
:1011A9002BFFEE3AFEE433FDE433FCE4FBFA79016C
:1011B900F8D3120967500302129BE49000B0F09033
:1011C9000048E0FF9000B0E0C39F502AE0FF25E00F
:1011D900244AF582E43400F583E0FCA3E0FD9000A5
:1011E90063E02FFF900062E03400FE12226090005D
:1011F900B0E004F080C9900064E070030212AE9080
:1012090000B1E0FF7B017A0079B2121B3E7B017AC3
:101219000079B27F10121B3E900062E0FF7B017AD9
:101229000079B2121B3E900062A3E0FF7B017A00B5
:1012390079B2121B3E900046E0FF7B017A0079B239
:10124900121B3E900046A3E0FF7B017A0079B2129F
:101259001B3E9000B1E0FF12222F7F1012222F9027
:101269000062E0FF12222F900062A3E0FF12222FFA
:10127900900046E0FF12222F900046A3E0FF1222C1
:101289002F9000B2A3E0FF12222F9000B2E0FF02DC
:10129900222F900044740280059000447403F0FDED
:0512A9007F10121A5530
:0112AE00221D
:1009E2009000C9EFF0900045E0B40E004003020C05
:1009F200279009FAF8282873020A24020C27020A0F
:100A020056020A8E020AA1020ABD020AD4020C2769
:100A1200020B18020B04020C27020BC1020BE502A7
:100A22000B8212225B9000C9E0FE6F6006EE60034B
:100A3200020C279000457402F09000C9E0FF90007C
:100A420064F0E4900049F0900044F074FF9000607C
:100A5200F0A380639000C9E0900049F0D3947F74C2
:100A620080948040028015900049E01424FA5004DA
:100A720024F770089000457403020BB99000447487
:100A820001F0900049E0FF7D01020BA69000C9E051
:100A9200FD900062F0A3E4F09000457404802D9074
:100AA20000C9E0FFFD900063E02DF0900062E034A9
:100AB20000F09000457405F0020C1E9000C9E0FDA4
:100AC200900046F0A3E4F09000457406F0AF0502F2
:100AD2000C1E9000C9E0FFFD900047E02DF0900051
:100AE20046E03400F0900049E06410700C90004839
:100AF200F0900045740DF080069000457409F002F4
:100B02000C1E9000C9E0FF90005EE4F0A3EFF090AD
:100B120000457408F0229000C9E0FE90005FE024D6
:100B220000F090005EE03EF0900060E0FEA3E0FF87
:100B320090005EE06E7003A3E06F703F900049E0AA
:100B420024FE601914601B14601D14601F146021C0
:100B520024F66022240F704F120FCF804A120E32F9
:100B620080451212AF80401213ED803B1216BD80F9
:100B7200361215FD8031121169802C12225E8027F7
:100B82009000C9E0900048F0600D900046A3E02577
:100B9200E0FFA3E06F60169000447403F0900049F8
:100BA200E0FF7D03121A55E4900045F022E4900024
:100BB20048F0900045740BF09000C9E0FF805D9012
:100BC20000C9E0FDFE900048E025E0244AF582E4F9
:100BD2003400F583EEF0A3E4F0900045740CF0AF1E
:100BE2000580399000C9E0FFFD900048E025E0242F
:100BF2004AF582E43400F583E48DF01207C69000D2
:100C020048E004F0900046A3E0FEA3E0FDEE900071
:100C120045B505057409F08003740BF07B017A0079
:060C22007960121B3E2266
:10054D00EC4D6011E8497017ED33EC3304600DE4A8
:10055D00FCFFFEFD22E933E8330470F80206FD12BC
:10056D0006C858046009E4CC2481500628500902BD
:10057D000707284003020704C0E0EB4A7044B98026
:10058D0006D0E0FB0206F3EF4E701CBD8008EBFFBA
:10059D00EAFEE9FD80EBE98DF0A4FEE5F0020636FA
:1005AD00E9CDF9EAFEEBFFEF89F0A4FCE5F0CE8989
:1005BD00F0A42EFFE435F0CD89F0A42DFEE435F046
:1005CD008067EF4E7005BD80D780C3EF8BF0A4AC74
:1005DD00F0EE8BF0A42CFCE435F0F8EF8AF0A42CAF
:1005ED00E5F038FCE433CB8DF0A42CFCE5F03BF8C2
:1005FD00EE8AF0A42CFCE5F038F8E433CF89F0A4B2
:10060D002CFCE5F038CF3400CE89F0A42FFFE5F0B7
:10061D003EFEE433C98DF0A42EFEE5F039CD8AF00F
:10062D00A42FFFE5F03EFEE43DFD33D0E0FB500787
:10063D000BBB000F020707EC2CFCEF33FFEE33FE74
:06064D00ED33FD0206DFA3
:1006530075F020800E75F010800575F0087D007E22
:10066300007F003392D530D503120959EC33401083
:10067300EF33FFEE33FEED33FDEC33FCD5F0ED222B
:0E068300E5F0247EA2D513CC92E7CDCEFF2267
:10069100EDD2E7CD33EC3392D524814006E4FFFE61
:1006A100FDFC22FCE4CFCECDCC24E0501174FF80C0
:1006B100EDC3CC13CCCD13CDCE13CECF13CF04705D
:0706C100F030D5DE020959FB
:1006C800E9D2E7C933E833F892D5EDD2E7CD33EC78
:0706D80033FC5002B2D522F1
:1006DF00EC30E7100FBF000C0EBE00080DBD00047C
:1006EF000BEB6014A2D5EB13FCED92E7FD2274FF28
:1006FF00FCFDFEFF22E480F8A2D574FF13FC7D8081
:03070F00E480EF94
:10194F00022136E493A3F8E493A34003F68001F257
:10195F0008DFF48029E493A3F85407240CC8C33399
:10196F00C4540F4420C8834004F456800146F6DF68
:10197F00E4800B0102040810204080901B9BE47E42
:10198F00019360BCA3FF543F30E509541FFEE4935D
:10199F00A360010ECF54C025E060A840B8E493A324
:1019AF00FAE493A3F8E493A3C8C582C8CAC583CA4F
:1019BF00F0A3C8C582C8CAC583CADFE9DEE780BE07
:011BFE0000E6
:10071200BB010689828A83E0225002E722BBFE02E5
:09072200E32289828A83E4932218
:10072B00BB010989828A83F8E028F022500327F75E
:10073B0022BBFE05F8E328F3228A838982F8E4932F
:02074B00282262
:10074D00BB010689828A83F0225002F722BBFE018B
:02075D00F32285
:10075F00EF8DF0A4A8F0CF8CF0A428CE8DF0A42EAE
:02076F00FE2268
:10077100BC000BBE0029EF8DF084FFADF022E4CC6C
:10078100F875F008EF2FFFEE33FEEC33FCEE9DEC35
:10079100984005FCEE9DFE0FD5F0E9E4CEFD22ED7B
:1007A100F8F5F0EE8420D21CFEADF075F008EF2FC5
:1007B100FFED33FD4007985006D5F0F222C398FDB6
:0507C1000FD5F0EA2253
:1007C600C5F0F8A3E028F0C5F0F8E58215827002BE
:0607D6001583E038F0225B
:1007DC00A3F8E0C5F025F0F0E582158270021583D0
:0607EC00E0C838F0E8222D
:1007F200BB010A89828A83E0F5F0A3E022500687D2
:10080200F009E71922BBFE07E3F5F009E319228993
:0B081200828A83E493F5F074019322C6
:10081D00BB010A89828A83F0E5F0A3F0225006F726
:0F082D0009A7F01922BBFE06F3E5F009F3192223
:10083C00E88FF0A4CC8BF0A42CFCE98EF0A42CFC5B
:10084C008AF0EDA42CFCEA8EF0A4CDA8F08BF0A4D9
:10085C002DCC3825F0FDE98FF0A42CCD35F0FCEB38
:10086C008EF0A4FEA9F0EB8FF0A4CFC5F02ECD39FD
:0F087C00FEE43CFCEAA42DCE35F0FDE43CFC226A
:10088B0075F008758200EF2FFFEE33FECD33CDCC24
:10089B0033CCC58233C5829BED9AEC99E5829840A7
:1008AB000CF582EE9BFEED9AFDEC99FC0FD5F0D684
:1008BB00E4CEFBE4CDFAE4CCF9A88222B800C1B9AE
:1008CB000059BA002DEC8BF084CFCECDFCE5F0CBEC
:1008DB00F97818EF2FFFEE33FEED33FDEC33FCEB25
:1008EB0033FB10D703994004EB99FB0FD8E5E4F9E0
:1008FB00FA227818EF2FFFEE33FEED33FDEC33FCCD
:10090B00C933C910D7059BE99A4007EC9BFCE99AC0
:10091B00F90FD8E0E4C9FAE4CCFB2275F010EF2F05
:10092B00FFEE33FEED33FDCC33CCC833C810D70705
:10093B009BEC9AE899400AED9BFDEC9AFCE899F840
:0E094B000FD5F0DAE4CDFBE4CCFAE4C8F922D3
:0E095900C3E49FFFE49EFEE49DFDE49CFC22AF
:10096700EB9FF5F0EA9E42F0E99D42F0E89C45F0E6
:01097700225D
:0C097800ECF0A3EDF0A3EEF0A3EFF022F2
:10098400A8828583F0D083D08212099B12099B121E
:10099400099B12099BE473E493A3C583C5F0C58343
:1009A400C8C582C8F0A3C583C5F0C583C8C582C8BD
:0109B4002220
:1009B500EC8EF0A4CCC5F0CCCDF8EFA4CEC5F02DCF
:1009C500FDE43CFCE8A42EC8C5F03DFDE43CFCEF8D
:0D09D500A4FFE5F028FEE43DFDE43CFC221B
:00000001FF
